{
  "_format": "hh-sol-artifact-1",
  "contractName": "MyEpicGame",
  "sourceName": "blockchain/contracts/Contract.sol",
  "abi": [
    {
      "inputs": [
        {
          "internalType": "string[]",
          "name": "names",
          "type": "string[]"
        },
        {
          "internalType": "string[]",
          "name": "ImageURIs",
          "type": "string[]"
        }
      ],
      "stateMutability": "nonpayable",
      "type": "constructor"
    },
    {
      "anonymous": false,
      "inputs": [
        {
          "indexed": true,
          "internalType": "address",
          "name": "owner",
          "type": "address"
        },
        {
          "indexed": true,
          "internalType": "address",
          "name": "approved",
          "type": "address"
        },
        {
          "indexed": true,
          "internalType": "uint256",
          "name": "tokenId",
          "type": "uint256"
        }
      ],
      "name": "Approval",
      "type": "event"
    },
    {
      "anonymous": false,
      "inputs": [
        {
          "indexed": true,
          "internalType": "address",
          "name": "owner",
          "type": "address"
        },
        {
          "indexed": true,
          "internalType": "address",
          "name": "operator",
          "type": "address"
        },
        {
          "indexed": false,
          "internalType": "bool",
          "name": "approved",
          "type": "bool"
        }
      ],
      "name": "ApprovalForAll",
      "type": "event"
    },
    {
      "anonymous": false,
      "inputs": [
        {
          "indexed": false,
          "internalType": "uint256",
          "name": "newBossHp",
          "type": "uint256"
        },
        {
          "indexed": false,
          "internalType": "uint256",
          "name": "newPlayerHp",
          "type": "uint256"
        }
      ],
      "name": "AttackComplete",
      "type": "event"
    },
    {
      "anonymous": false,
      "inputs": [
        {
          "indexed": false,
          "internalType": "address",
          "name": "sender",
          "type": "address"
        },
        {
          "indexed": false,
          "internalType": "uint256",
          "name": "tokenId",
          "type": "uint256"
        },
        {
          "indexed": false,
          "internalType": "uint256",
          "name": "characterIndex",
          "type": "uint256"
        }
      ],
      "name": "CharacterNFTMinted",
      "type": "event"
    },
    {
      "anonymous": false,
      "inputs": [
        {
          "indexed": true,
          "internalType": "address",
          "name": "from",
          "type": "address"
        },
        {
          "indexed": true,
          "internalType": "address",
          "name": "to",
          "type": "address"
        },
        {
          "indexed": true,
          "internalType": "uint256",
          "name": "tokenId",
          "type": "uint256"
        }
      ],
      "name": "Transfer",
      "type": "event"
    },
    {
      "inputs": [
        {
          "internalType": "address",
          "name": "to",
          "type": "address"
        },
        {
          "internalType": "uint256",
          "name": "tokenId",
          "type": "uint256"
        }
      ],
      "name": "approve",
      "outputs": [],
      "stateMutability": "nonpayable",
      "type": "function"
    },
    {
      "inputs": [
        {
          "internalType": "address",
          "name": "owner",
          "type": "address"
        }
      ],
      "name": "balanceOf",
      "outputs": [
        {
          "internalType": "uint256",
          "name": "",
          "type": "uint256"
        }
      ],
      "stateMutability": "view",
      "type": "function"
    },
    {
      "inputs": [],
      "name": "checkIfUserHasNFT",
      "outputs": [
        {
          "components": [
            {
              "internalType": "uint256",
              "name": "characterIndex",
              "type": "uint256"
            },
            {
              "internalType": "string",
              "name": "name",
              "type": "string"
            },
            {
              "internalType": "string",
              "name": "imageURI",
              "type": "string"
            }
          ],
          "internalType": "struct MyEpicGame.NFTAttributes",
          "name": "",
          "type": "tuple"
        }
      ],
      "stateMutability": "view",
      "type": "function"
    },
    {
      "inputs": [],
      "name": "getAllNFTs",
      "outputs": [
        {
          "components": [
            {
              "internalType": "uint256",
              "name": "characterIndex",
              "type": "uint256"
            },
            {
              "internalType": "string",
              "name": "name",
              "type": "string"
            },
            {
              "internalType": "string",
              "name": "imageURI",
              "type": "string"
            }
          ],
          "internalType": "struct MyEpicGame.NFTAttributes[]",
          "name": "",
          "type": "tuple[]"
        }
      ],
      "stateMutability": "view",
      "type": "function"
    },
    {
      "inputs": [
        {
          "internalType": "uint256",
          "name": "tokenId",
          "type": "uint256"
        }
      ],
      "name": "getApproved",
      "outputs": [
        {
          "internalType": "address",
          "name": "",
          "type": "address"
        }
      ],
      "stateMutability": "view",
      "type": "function"
    },
    {
      "inputs": [
        {
          "internalType": "address",
          "name": "owner",
          "type": "address"
        },
        {
          "internalType": "address",
          "name": "operator",
          "type": "address"
        }
      ],
      "name": "isApprovedForAll",
      "outputs": [
        {
          "internalType": "bool",
          "name": "",
          "type": "bool"
        }
      ],
      "stateMutability": "view",
      "type": "function"
    },
    {
      "inputs": [
        {
          "internalType": "uint256",
          "name": "_characterIndex",
          "type": "uint256"
        }
      ],
      "name": "mintERR404NFT",
      "outputs": [],
      "stateMutability": "nonpayable",
      "type": "function"
    },
    {
      "inputs": [],
      "name": "name",
      "outputs": [
        {
          "internalType": "string",
          "name": "",
          "type": "string"
        }
      ],
      "stateMutability": "view",
      "type": "function"
    },
    {
      "inputs": [
        {
          "internalType": "uint256",
          "name": "",
          "type": "uint256"
        }
      ],
      "name": "nftHolderAttributes",
      "outputs": [
        {
          "internalType": "uint256",
          "name": "characterIndex",
          "type": "uint256"
        },
        {
          "internalType": "string",
          "name": "name",
          "type": "string"
        },
        {
          "internalType": "string",
          "name": "imageURI",
          "type": "string"
        }
      ],
      "stateMutability": "view",
      "type": "function"
    },
    {
      "inputs": [
        {
          "internalType": "address",
          "name": "",
          "type": "address"
        }
      ],
      "name": "nftHolders",
      "outputs": [
        {
          "internalType": "uint256",
          "name": "",
          "type": "uint256"
        }
      ],
      "stateMutability": "view",
      "type": "function"
    },
    {
      "inputs": [
        {
          "internalType": "uint256",
          "name": "tokenId",
          "type": "uint256"
        }
      ],
      "name": "ownerOf",
      "outputs": [
        {
          "internalType": "address",
          "name": "",
          "type": "address"
        }
      ],
      "stateMutability": "view",
      "type": "function"
    },
    {
      "inputs": [
        {
          "internalType": "address",
          "name": "from",
          "type": "address"
        },
        {
          "internalType": "address",
          "name": "to",
          "type": "address"
        },
        {
          "internalType": "uint256",
          "name": "tokenId",
          "type": "uint256"
        }
      ],
      "name": "safeTransferFrom",
      "outputs": [],
      "stateMutability": "nonpayable",
      "type": "function"
    },
    {
      "inputs": [
        {
          "internalType": "address",
          "name": "from",
          "type": "address"
        },
        {
          "internalType": "address",
          "name": "to",
          "type": "address"
        },
        {
          "internalType": "uint256",
          "name": "tokenId",
          "type": "uint256"
        },
        {
          "internalType": "bytes",
          "name": "_data",
          "type": "bytes"
        }
      ],
      "name": "safeTransferFrom",
      "outputs": [],
      "stateMutability": "nonpayable",
      "type": "function"
    },
    {
      "inputs": [
        {
          "internalType": "address",
          "name": "operator",
          "type": "address"
        },
        {
          "internalType": "bool",
          "name": "approved",
          "type": "bool"
        }
      ],
      "name": "setApprovalForAll",
      "outputs": [],
      "stateMutability": "nonpayable",
      "type": "function"
    },
    {
      "inputs": [
        {
          "internalType": "bytes4",
          "name": "interfaceId",
          "type": "bytes4"
        }
      ],
      "name": "supportsInterface",
      "outputs": [
        {
          "internalType": "bool",
          "name": "",
          "type": "bool"
        }
      ],
      "stateMutability": "view",
      "type": "function"
    },
    {
      "inputs": [],
      "name": "symbol",
      "outputs": [
        {
          "internalType": "string",
          "name": "",
          "type": "string"
        }
      ],
      "stateMutability": "view",
      "type": "function"
    },
    {
      "inputs": [
        {
          "internalType": "uint256",
          "name": "_tokenId",
          "type": "uint256"
        }
      ],
      "name": "tokenURI",
      "outputs": [
        {
          "internalType": "string",
          "name": "",
          "type": "string"
        }
      ],
      "stateMutability": "view",
      "type": "function"
    },
    {
      "inputs": [
        {
          "internalType": "address",
          "name": "from",
          "type": "address"
        },
        {
          "internalType": "address",
          "name": "to",
          "type": "address"
        },
        {
          "internalType": "uint256",
          "name": "tokenId",
          "type": "uint256"
        }
      ],
      "name": "transferFrom",
      "outputs": [],
      "stateMutability": "nonpayable",
      "type": "function"
    }
  ],
  "bytecode": "0x60806040523480156200001157600080fd5b506040516200420b3803806200420b833981810160405281019062000037919062000539565b6040518060400160405280600881526020017f4552524f523430340000000000000000000000000000000000000000000000008152506040518060400160405280600681526020017f45525234303400000000000000000000000000000000000000000000000000008152508160009080519060200190620000bb9291906200035a565b508060019080519060200190620000d49291906200035a565b50505060005b825181101562000258576007604051806060016040528083815260200185848151811062000131577f4e487b7100000000000000000000000000000000000000000000000000000000600052603260045260246000fd5b6020026020010151815260200184848151811062000178577f4e487b7100000000000000000000000000000000000000000000000000000000600052603260045260246000fd5b60200260200101518152509080600181540180825580915050600190039060005260206000209060030201600090919091909150600082015181600001556020820151816001019080519060200190620001d49291906200035a565b506040820151816002019080519060200190620001f39291906200035a565b505050620002416040518060400160405280601181526020017f446f6e6520696e697469616c697a696e670000000000000000000000000000008152506200027860201b620013931760201c565b600181620002509190620006bb565b9050620000da565b506200027060066200031b60201b6200142c1760201c565b505062000862565b62000318816040516024016200028f9190620005ed565b6040516020818303038152906040527f41304fac000000000000000000000000000000000000000000000000000000007bffffffffffffffffffffffffffffffffffffffffffffffffffffffff19166020820180517bffffffffffffffffffffffffffffffffffffffffffffffffffffffff83818316178352505050506200033160201b60201c565b50565b6001816000016000828254019250508190555050565b60008151905060006a636f6e736f6c652e6c6f679050602083016000808483855afa5050505050565b828054620003689062000758565b90600052602060002090601f0160209004810192826200038c5760008555620003d8565b82601f10620003a757805160ff1916838001178555620003d8565b82800160010185558215620003d8579182015b82811115620003d7578251825591602001919060010190620003ba565b5b509050620003e79190620003eb565b5090565b5b8082111562000406576000816000905550600101620003ec565b5090565b6000620004216200041b846200063a565b62000611565b905080838252602082019050828560208602820111156200044157600080fd5b60005b858110156200049057815167ffffffffffffffff8111156200046557600080fd5b8086016200047489826200050c565b8552602085019450602084019350505060018101905062000444565b5050509392505050565b6000620004b1620004ab8462000669565b62000611565b905082815260208101848484011115620004ca57600080fd5b620004d784828562000722565b509392505050565b600082601f830112620004f157600080fd5b8151620005038482602086016200040a565b91505092915050565b600082601f8301126200051e57600080fd5b8151620005308482602086016200049a565b91505092915050565b600080604083850312156200054d57600080fd5b600083015167ffffffffffffffff8111156200056857600080fd5b6200057685828601620004df565b925050602083015167ffffffffffffffff8111156200059457600080fd5b620005a285828601620004df565b9150509250929050565b6000620005b9826200069f565b620005c58185620006aa565b9350620005d781856020860162000722565b620005e28162000851565b840191505092915050565b60006020820190508181036000830152620006098184620005ac565b905092915050565b60006200061d62000630565b90506200062b82826200078e565b919050565b6000604051905090565b600067ffffffffffffffff82111562000658576200065762000822565b5b602082029050602081019050919050565b600067ffffffffffffffff82111562000687576200068662000822565b5b620006928262000851565b9050602081019050919050565b600081519050919050565b600082825260208201905092915050565b6000620006c88262000718565b9150620006d58362000718565b9250827fffffffffffffffffffffffffffffffffffffffffffffffffffffffffffffffff038211156200070d576200070c620007c4565b5b828201905092915050565b6000819050919050565b60005b838110156200074257808201518184015260208101905062000725565b8381111562000752576000848401525b50505050565b600060028204905060018216806200077157607f821691505b60208210811415620007885762000787620007f3565b5b50919050565b620007998262000851565b810181811067ffffffffffffffff82111715620007bb57620007ba62000822565b5b80604052505050565b7f4e487b7100000000000000000000000000000000000000000000000000000000600052601160045260246000fd5b7f4e487b7100000000000000000000000000000000000000000000000000000000600052602260045260246000fd5b7f4e487b7100000000000000000000000000000000000000000000000000000000600052604160045260246000fd5b6000601f19601f8301169050919050565b61399980620008726000396000f3fe608060405234801561001057600080fd5b50600436106101165760003560e01c80637df124a1116100a2578063b88d4fde11610071578063b88d4fde14610305578063c87b56dd14610321578063c8cf27f414610351578063e0391b091461036f578063e985e9c51461038d57610116565b80637df124a11461026957806395d89b411461029957806398da4c95146102b7578063a22cb465146102e957610116565b806323b872dd116100e957806323b872dd146101b557806342842e0e146101d157806350341d50146101ed5780636352211e1461020957806370a082311461023957610116565b806301ffc9a71461011b57806306fdde031461014b578063081812fc14610169578063095ea7b314610199575b600080fd5b6101356004803603810190610130919061267b565b6103bd565b6040516101429190612cfa565b60405180910390f35b61015361049f565b6040516101609190612d15565b60405180910390f35b610183600480360381019061017e91906126cd565b610531565b6040516101909190612c3a565b60405180910390f35b6101b360048036038101906101ae919061263f565b6105b6565b005b6101cf60048036038101906101ca9190612539565b6106ce565b005b6101eb60048036038101906101e69190612539565b61072e565b005b610207600480360381019061020291906126cd565b61074e565b005b610223600480360381019061021e91906126cd565b610a31565b6040516102309190612c3a565b60405180910390f35b610253600480360381019061024e91906124d4565b610ae3565b6040516102609190612f37565b60405180910390f35b610283600480360381019061027e91906124d4565b610b9b565b6040516102909190612f37565b60405180910390f35b6102a1610bb3565b6040516102ae9190612d15565b60405180910390f35b6102d160048036038101906102cc91906126cd565b610c45565b6040516102e093929190612f52565b60405180910390f35b61030360048036038101906102fe9190612603565b610d7f565b005b61031f600480360381019061031a9190612588565b610d95565b005b61033b600480360381019061033691906126cd565b610df7565b6040516103489190612d15565b60405180910390f35b610359610fb8565b6040516103669190612f15565b60405180910390f35b610377611172565b6040516103849190612cd8565b60405180910390f35b6103a760048036038101906103a291906124fd565b6112ff565b6040516103b49190612cfa565b60405180910390f35b60007f80ac58cd000000000000000000000000000000000000000000000000000000007bffffffffffffffffffffffffffffffffffffffffffffffffffffffff1916827bffffffffffffffffffffffffffffffffffffffffffffffffffffffff1916148061048857507f5b5e139f000000000000000000000000000000000000000000000000000000007bffffffffffffffffffffffffffffffffffffffffffffffffffffffff1916827bffffffffffffffffffffffffffffffffffffffffffffffffffffffff1916145b80610498575061049782611442565b5b9050919050565b6060600080546104ae90613245565b80601f01602080910402602001604051908101604052809291908181526020018280546104da90613245565b80156105275780601f106104fc57610100808354040283529160200191610527565b820191906000526020600020905b81548152906001019060200180831161050a57829003601f168201915b5050505050905090565b600061053c826114ac565b61057b576040517f08c379a000000000000000000000000000000000000000000000000000000000815260040161057290612eb5565b60405180910390fd5b6004600083815260200190815260200160002060009054906101000a900473ffffffffffffffffffffffffffffffffffffffff169050919050565b60006105c182610a31565b90508073ffffffffffffffffffffffffffffffffffffffff168373ffffffffffffffffffffffffffffffffffffffff161415610632576040517f08c379a000000000000000000000000000000000000000000000000000000000815260040161062990612ed5565b60405180910390fd5b8073ffffffffffffffffffffffffffffffffffffffff16610651611518565b73ffffffffffffffffffffffffffffffffffffffff161480610680575061067f8161067a611518565b6112ff565b5b6106bf576040517f08c379a00000000000000000000000000000000000000000000000000000000081526004016106b690612e35565b60405180910390fd5b6106c98383611520565b505050565b6106df6106d9611518565b826115d9565b61071e576040517f08c379a000000000000000000000000000000000000000000000000000000000815260040161071590612ef5565b60405180910390fd5b6107298383836116b7565b505050565b61074983838360405180602001604052806000815250610d95565b505050565b600061075a600661191e565b9050610766338261192c565b6040518060600160405280838152602001600784815481106107b1577f4e487b7100000000000000000000000000000000000000000000000000000000600052603260045260246000fd5b906000526020600020906003020160010180546107cd90613245565b80601f01602080910402602001604051908101604052809291908181526020018280546107f990613245565b80156108465780601f1061081b57610100808354040283529160200191610846565b820191906000526020600020905b81548152906001019060200180831161082957829003601f168201915b505050505081526020016007848154811061088a577f4e487b7100000000000000000000000000000000000000000000000000000000600052603260045260246000fd5b906000526020600020906003020160020180546108a690613245565b80601f01602080910402602001604051908101604052809291908181526020018280546108d290613245565b801561091f5780601f106108f45761010080835404028352916020019161091f565b820191906000526020600020905b81548152906001019060200180831161090257829003601f168201915b50505050508152506008600083815260200190815260200160002060008201518160000155602082015181600101908051906020019061096092919061233f565b50604082015181600201908051906020019061097d92919061233f565b509050506109a46040518060600160405280602e8152602001613936602e9139828461194a565b80600960003373ffffffffffffffffffffffffffffffffffffffff1673ffffffffffffffffffffffffffffffffffffffff168152602001908152602001600020819055506109f2600661142c565b7f4bc303fd457a97b4691b9af582ce71868a3d258638c8d4f8c60988a0f0bfb8cd338284604051610a2593929190612ca1565b60405180910390a15050565b6000806002600084815260200190815260200160002060009054906101000a900473ffffffffffffffffffffffffffffffffffffffff169050600073ffffffffffffffffffffffffffffffffffffffff168173ffffffffffffffffffffffffffffffffffffffff161415610ada576040517f08c379a0000000000000000000000000000000000000000000000000000000008152600401610ad190612e75565b60405180910390fd5b80915050919050565b60008073ffffffffffffffffffffffffffffffffffffffff168273ffffffffffffffffffffffffffffffffffffffff161415610b54576040517f08c379a0000000000000000000000000000000000000000000000000000000008152600401610b4b90612e55565b60405180910390fd5b600360008373ffffffffffffffffffffffffffffffffffffffff1673ffffffffffffffffffffffffffffffffffffffff168152602001908152602001600020549050919050565b60096020528060005260406000206000915090505481565b606060018054610bc290613245565b80601f0160208091040260200160405190810160405280929190818152602001828054610bee90613245565b8015610c3b5780601f10610c1057610100808354040283529160200191610c3b565b820191906000526020600020905b815481529060010190602001808311610c1e57829003601f168201915b5050505050905090565b6008602052806000526040600020600091509050806000015490806001018054610c6e90613245565b80601f0160208091040260200160405190810160405280929190818152602001828054610c9a90613245565b8015610ce75780601f10610cbc57610100808354040283529160200191610ce7565b820191906000526020600020905b815481529060010190602001808311610cca57829003601f168201915b505050505090806002018054610cfc90613245565b80601f0160208091040260200160405190810160405280929190818152602001828054610d2890613245565b8015610d755780601f10610d4a57610100808354040283529160200191610d75565b820191906000526020600020905b815481529060010190602001808311610d5857829003601f168201915b5050505050905083565b610d91610d8a611518565b83836119e9565b5050565b610da6610da0611518565b836115d9565b610de5576040517f08c379a0000000000000000000000000000000000000000000000000000000008152600401610ddc90612ef5565b60405180910390fd5b610df184848484611b56565b50505050565b606060006008600084815260200190815260200160002060405180606001604052908160008201548152602001600182018054610e3390613245565b80601f0160208091040260200160405190810160405280929190818152602001828054610e5f90613245565b8015610eac5780601f10610e8157610100808354040283529160200191610eac565b820191906000526020600020905b815481529060010190602001808311610e8f57829003601f168201915b50505050508152602001600282018054610ec590613245565b80601f0160208091040260200160405190810160405280929190818152602001828054610ef190613245565b8015610f3e5780601f10610f1357610100808354040283529160200191610f3e565b820191906000526020600020905b815481529060010190602001808311610f2157829003601f168201915b50505050508152505090506000610f878260200151610f5c86611bb2565b8460400151604051602001610f7393929190612bbb565b604051602081830303815290604052611d5f565b9050600081604051602001610f9c9190612c18565b6040516020818303038152906040529050809350505050919050565b610fc06123c5565b6000600960003373ffffffffffffffffffffffffffffffffffffffff1673ffffffffffffffffffffffffffffffffffffffff168152602001908152602001600020549050600081111561116157600860008281526020019081526020016000206040518060600160405290816000820154815260200160018201805461104590613245565b80601f016020809104026020016040519081016040528092919081815260200182805461107190613245565b80156110be5780601f10611093576101008083540402835291602001916110be565b820191906000526020600020905b8154815290600101906020018083116110a157829003601f168201915b505050505081526020016002820180546110d790613245565b80601f016020809104026020016040519081016040528092919081815260200182805461110390613245565b80156111505780601f1061112557610100808354040283529160200191611150565b820191906000526020600020905b81548152906001019060200180831161113357829003601f168201915b50505050508152505091505061116f565b6111696123c5565b80925050505b90565b60606007805480602002602001604051908101604052809291908181526020016000905b828210156112f65783829060005260206000209060030201604051806060016040529081600082015481526020016001820180546111d390613245565b80601f01602080910402602001604051908101604052809291908181526020018280546111ff90613245565b801561124c5780601f106112215761010080835404028352916020019161124c565b820191906000526020600020905b81548152906001019060200180831161122f57829003601f168201915b5050505050815260200160028201805461126590613245565b80601f016020809104026020016040519081016040528092919081815260200182805461129190613245565b80156112de5780601f106112b3576101008083540402835291602001916112de565b820191906000526020600020905b8154815290600101906020018083116112c157829003601f168201915b50505050508152505081526020019060010190611196565b50505050905090565b6000600560008473ffffffffffffffffffffffffffffffffffffffff1673ffffffffffffffffffffffffffffffffffffffff16815260200190815260200160002060008373ffffffffffffffffffffffffffffffffffffffff1673ffffffffffffffffffffffffffffffffffffffff16815260200190815260200160002060009054906101000a900460ff16905092915050565b611429816040516024016113a79190612d15565b6040516020818303038152906040527f41304fac000000000000000000000000000000000000000000000000000000007bffffffffffffffffffffffffffffffffffffffffffffffffffffffff19166020820180517bffffffffffffffffffffffffffffffffffffffffffffffffffffffff8381831617835250505050611f1d565b50565b6001816000016000828254019250508190555050565b60007f01ffc9a7000000000000000000000000000000000000000000000000000000007bffffffffffffffffffffffffffffffffffffffffffffffffffffffff1916827bffffffffffffffffffffffffffffffffffffffffffffffffffffffff1916149050919050565b60008073ffffffffffffffffffffffffffffffffffffffff166002600084815260200190815260200160002060009054906101000a900473ffffffffffffffffffffffffffffffffffffffff1673ffffffffffffffffffffffffffffffffffffffff1614159050919050565b600033905090565b816004600083815260200190815260200160002060006101000a81548173ffffffffffffffffffffffffffffffffffffffff021916908373ffffffffffffffffffffffffffffffffffffffff160217905550808273ffffffffffffffffffffffffffffffffffffffff1661159383610a31565b73ffffffffffffffffffffffffffffffffffffffff167f8c5be1e5ebec7d5bd14f71427d1e84f3dd0314c0f7b2291e5b200ac8c7c3b92560405160405180910390a45050565b60006115e4826114ac565b611623576040517f08c379a000000000000000000000000000000000000000000000000000000000815260040161161a90612e15565b60405180910390fd5b600061162e83610a31565b90508073ffffffffffffffffffffffffffffffffffffffff168473ffffffffffffffffffffffffffffffffffffffff16148061169d57508373ffffffffffffffffffffffffffffffffffffffff1661168584610531565b73ffffffffffffffffffffffffffffffffffffffff16145b806116ae57506116ad81856112ff565b5b91505092915050565b8273ffffffffffffffffffffffffffffffffffffffff166116d782610a31565b73ffffffffffffffffffffffffffffffffffffffff161461172d576040517f08c379a000000000000000000000000000000000000000000000000000000000815260040161172490612d95565b60405180910390fd5b600073ffffffffffffffffffffffffffffffffffffffff168273ffffffffffffffffffffffffffffffffffffffff16141561179d576040517f08c379a000000000000000000000000000000000000000000000000000000000815260040161179490612dd5565b60405180910390fd5b6117a8838383611f46565b6117b3600082611520565b6001600360008573ffffffffffffffffffffffffffffffffffffffff1673ffffffffffffffffffffffffffffffffffffffff1681526020019081526020016000206000828254611803919061315b565b925050819055506001600360008473ffffffffffffffffffffffffffffffffffffffff1673ffffffffffffffffffffffffffffffffffffffff168152602001908152602001600020600082825461185a919061307a565b92505081905550816002600083815260200190815260200160002060006101000a81548173ffffffffffffffffffffffffffffffffffffffff021916908373ffffffffffffffffffffffffffffffffffffffff160217905550808273ffffffffffffffffffffffffffffffffffffffff168473ffffffffffffffffffffffffffffffffffffffff167fddf252ad1be2c89b69c2b068fc378daa952ba7f163c4a11628f55a4df523b3ef60405160405180910390a4611919838383611f4b565b505050565b600081600001549050919050565b611946828260405180602001604052806000815250611f50565b5050565b6119e483838360405160240161196293929190612d37565b6040516020818303038152906040527f969cdd03000000000000000000000000000000000000000000000000000000007bffffffffffffffffffffffffffffffffffffffffffffffffffffffff19166020820180517bffffffffffffffffffffffffffffffffffffffffffffffffffffffff8381831617835250505050611f1d565b505050565b8173ffffffffffffffffffffffffffffffffffffffff168373ffffffffffffffffffffffffffffffffffffffff161415611a58576040517f08c379a0000000000000000000000000000000000000000000000000000000008152600401611a4f90612df5565b60405180910390fd5b80600560008573ffffffffffffffffffffffffffffffffffffffff1673ffffffffffffffffffffffffffffffffffffffff16815260200190815260200160002060008473ffffffffffffffffffffffffffffffffffffffff1673ffffffffffffffffffffffffffffffffffffffff16815260200190815260200160002060006101000a81548160ff0219169083151502179055508173ffffffffffffffffffffffffffffffffffffffff168373ffffffffffffffffffffffffffffffffffffffff167f17307eab39ab6107e8899845ad3d59bd9653f200f220920489ca2b5937696c3183604051611b499190612cfa565b60405180910390a3505050565b611b618484846116b7565b611b6d84848484611fab565b611bac576040517f08c379a0000000000000000000000000000000000000000000000000000000008152600401611ba390612d75565b60405180910390fd5b50505050565b60606000821415611bfa576040518060400160405280600181526020017f30000000000000000000000000000000000000000000000000000000000000008152509050611d5a565b600082905060005b60008214611c2c578080611c15906132a8565b915050600a82611c2591906130d0565b9150611c02565b60008167ffffffffffffffff811115611c6e577f4e487b7100000000000000000000000000000000000000000000000000000000600052604160045260246000fd5b6040519080825280601f01601f191660200182016040528015611ca05781602001600182028036833780820191505090505b5090505b60008514611d5357600182611cb9919061315b565b9150600a85611cc891906132f1565b6030611cd4919061307a565b60f81b818381518110611d10577f4e487b7100000000000000000000000000000000000000000000000000000000600052603260045260246000fd5b60200101907effffffffffffffffffffffffffffffffffffffffffffffffffffffffffffff1916908160001a905350600a85611d4c91906130d0565b9450611ca4565b8093505050505b919050565b60606000825190506000811415611d885760405180602001604052806000815250915050611f18565b60006003600283611d99919061307a565b611da391906130d0565b6004611daf9190613101565b90506000602082611dc0919061307a565b67ffffffffffffffff811115611dff577f4e487b7100000000000000000000000000000000000000000000000000000000600052604160045260246000fd5b6040519080825280601f01601f191660200182016040528015611e315781602001600182028036833780820191505090505b50905060006040518060600160405280604081526020016138f6604091399050600181016020830160005b86811015611ed55760038101905062ffffff818a015116603f8160121c168401518060081b905060ff603f83600c1c1686015116810190508060081b905060ff603f8360061c1686015116810190508060081b905060ff603f831686015116810190508060e01b90508084526004840193505050611e5c565b506003860660018114611eef5760028114611eff57611f0a565b613d3d60f01b6002830352611f0a565b603d60f81b60018303525b508484525050819450505050505b919050565b60008151905060006a636f6e736f6c652e6c6f679050602083016000808483855afa5050505050565b505050565b505050565b611f5a8383612142565b611f676000848484611fab565b611fa6576040517f08c379a0000000000000000000000000000000000000000000000000000000008152600401611f9d90612d75565b60405180910390fd5b505050565b6000611fcc8473ffffffffffffffffffffffffffffffffffffffff1661231c565b15612135578373ffffffffffffffffffffffffffffffffffffffff1663150b7a02611ff5611518565b8786866040518563ffffffff1660e01b81526004016120179493929190612c55565b602060405180830381600087803b15801561203157600080fd5b505af192505050801561206257506040513d601f19601f8201168201806040525081019061205f91906126a4565b60015b6120e5573d8060008114612092576040519150601f19603f3d011682016040523d82523d6000602084013e612097565b606091505b506000815114156120dd576040517f08c379a00000000000000000000000000000000000000000000000000000000081526004016120d490612d75565b60405180910390fd5b805181602001fd5b63150b7a0260e01b7bffffffffffffffffffffffffffffffffffffffffffffffffffffffff1916817bffffffffffffffffffffffffffffffffffffffffffffffffffffffff19161491505061213a565b600190505b949350505050565b600073ffffffffffffffffffffffffffffffffffffffff168273ffffffffffffffffffffffffffffffffffffffff1614156121b2576040517f08c379a00000000000000000000000000000000000000000000000000000000081526004016121a990612e95565b60405180910390fd5b6121bb816114ac565b156121fb576040517f08c379a00000000000000000000000000000000000000000000000000000000081526004016121f290612db5565b60405180910390fd5b61220760008383611f46565b6001600360008473ffffffffffffffffffffffffffffffffffffffff1673ffffffffffffffffffffffffffffffffffffffff1681526020019081526020016000206000828254612257919061307a565b92505081905550816002600083815260200190815260200160002060006101000a81548173ffffffffffffffffffffffffffffffffffffffff021916908373ffffffffffffffffffffffffffffffffffffffff160217905550808273ffffffffffffffffffffffffffffffffffffffff16600073ffffffffffffffffffffffffffffffffffffffff167fddf252ad1be2c89b69c2b068fc378daa952ba7f163c4a11628f55a4df523b3ef60405160405180910390a461231860008383611f4b565b5050565b6000808273ffffffffffffffffffffffffffffffffffffffff163b119050919050565b82805461234b90613245565b90600052602060002090601f01602090048101928261236d57600085556123b4565b82601f1061238657805160ff19168380011785556123b4565b828001600101855582156123b4579182015b828111156123b3578251825591602001919060010190612398565b5b5090506123c191906123e6565b5090565b60405180606001604052806000815260200160608152602001606081525090565b5b808211156123ff5760008160009055506001016123e7565b5090565b600061241661241184612fbc565b612f97565b90508281526020810184848401111561242e57600080fd5b612439848285613203565b509392505050565b60008135905061245081613899565b92915050565b600081359050612465816138b0565b92915050565b60008135905061247a816138c7565b92915050565b60008151905061248f816138c7565b92915050565b600082601f8301126124a657600080fd5b81356124b6848260208601612403565b91505092915050565b6000813590506124ce816138de565b92915050565b6000602082840312156124e657600080fd5b60006124f484828501612441565b91505092915050565b6000806040838503121561251057600080fd5b600061251e85828601612441565b925050602061252f85828601612441565b9150509250929050565b60008060006060848603121561254e57600080fd5b600061255c86828701612441565b935050602061256d86828701612441565b925050604061257e868287016124bf565b9150509250925092565b6000806000806080858703121561259e57600080fd5b60006125ac87828801612441565b94505060206125bd87828801612441565b93505060406125ce878288016124bf565b925050606085013567ffffffffffffffff8111156125eb57600080fd5b6125f787828801612495565b91505092959194509250565b6000806040838503121561261657600080fd5b600061262485828601612441565b925050602061263585828601612456565b9150509250929050565b6000806040838503121561265257600080fd5b600061266085828601612441565b9250506020612671858286016124bf565b9150509250929050565b60006020828403121561268d57600080fd5b600061269b8482850161246b565b91505092915050565b6000602082840312156126b657600080fd5b60006126c484828501612480565b91505092915050565b6000602082840312156126df57600080fd5b60006126ed848285016124bf565b91505092915050565b60006127028383612aef565b905092915050565b6127138161318f565b82525050565b600061272482612ffd565b61272e818561302b565b93508360208202850161274085612fed565b8060005b8581101561277c578484038952815161275d85826126f6565b94506127688361301e565b925060208a01995050600181019050612744565b50829750879550505050505092915050565b612797816131a1565b82525050565b60006127a882613008565b6127b2818561303c565b93506127c2818560208601613212565b6127cb816133de565b840191505092915050565b60006127e182613013565b6127eb818561304d565b93506127fb818560208601613212565b612804816133de565b840191505092915050565b600061281a82613013565b612824818561305e565b9350612834818560208601613212565b61283d816133de565b840191505092915050565b600061285382613013565b61285d818561306f565b935061286d818560208601613212565b80840191505092915050565b600061288660328361305e565b9150612891826133ef565b604082019050919050565b60006128a960258361305e565b91506128b48261343e565b604082019050919050565b60006128cc601c8361305e565b91506128d78261348d565b602082019050919050565b60006128ef60248361305e565b91506128fa826134b6565b604082019050919050565b600061291260198361305e565b915061291d82613505565b602082019050919050565b6000612935602c8361305e565b91506129408261352e565b604082019050919050565b6000612958605e8361306f565b91506129638261357d565b605e82019050919050565b600061297b600a8361306f565b9150612986826135f2565b600a82019050919050565b600061299e60388361305e565b91506129a98261361b565b604082019050919050565b60006129c1602a8361305e565b91506129cc8261366a565b604082019050919050565b60006129e460298361305e565b91506129ef826136b9565b604082019050919050565b6000612a0760208361305e565b9150612a1282613708565b602082019050919050565b6000612a2a602c8361305e565b9150612a3582613731565b604082019050919050565b6000612a4d60048361306f565b9150612a5882613780565b600482019050919050565b6000612a70600a8361306f565b9150612a7b826137a9565b600a82019050919050565b6000612a9360218361305e565b9150612a9e826137d2565b604082019050919050565b6000612ab6601d8361306f565b9150612ac182613821565b601d82019050919050565b6000612ad960318361305e565b9150612ae48261384a565b604082019050919050565b6000606083016000830151612b076000860182612b9d565b5060208301518482036020860152612b1f82826127d6565b91505060408301518482036040860152612b3982826127d6565b9150508091505092915050565b6000606083016000830151612b5e6000860182612b9d565b5060208301518482036020860152612b7682826127d6565b91505060408301518482036040860152612b9082826127d6565b9150508091505092915050565b612ba6816131f9565b82525050565b612bb5816131f9565b82525050565b6000612bc682612a63565b9150612bd28286612848565b9150612bdd8261296e565b9150612be98285612848565b9150612bf48261294b565b9150612c008284612848565b9150612c0b82612a40565b9150819050949350505050565b6000612c2382612aa9565b9150612c2f8284612848565b915081905092915050565b6000602082019050612c4f600083018461270a565b92915050565b6000608082019050612c6a600083018761270a565b612c77602083018661270a565b612c846040830185612bac565b8181036060830152612c96818461279d565b905095945050505050565b6000606082019050612cb6600083018661270a565b612cc36020830185612bac565b612cd06040830184612bac565b949350505050565b60006020820190508181036000830152612cf28184612719565b905092915050565b6000602082019050612d0f600083018461278e565b92915050565b60006020820190508181036000830152612d2f818461280f565b905092915050565b60006060820190508181036000830152612d51818661280f565b9050612d606020830185612bac565b612d6d6040830184612bac565b949350505050565b60006020820190508181036000830152612d8e81612879565b9050919050565b60006020820190508181036000830152612dae8161289c565b9050919050565b60006020820190508181036000830152612dce816128bf565b9050919050565b60006020820190508181036000830152612dee816128e2565b9050919050565b60006020820190508181036000830152612e0e81612905565b9050919050565b60006020820190508181036000830152612e2e81612928565b9050919050565b60006020820190508181036000830152612e4e81612991565b9050919050565b60006020820190508181036000830152612e6e816129b4565b9050919050565b60006020820190508181036000830152612e8e816129d7565b9050919050565b60006020820190508181036000830152612eae816129fa565b9050919050565b60006020820190508181036000830152612ece81612a1d565b9050919050565b60006020820190508181036000830152612eee81612a86565b9050919050565b60006020820190508181036000830152612f0e81612acc565b9050919050565b60006020820190508181036000830152612f2f8184612b46565b905092915050565b6000602082019050612f4c6000830184612bac565b92915050565b6000606082019050612f676000830186612bac565b8181036020830152612f79818561280f565b90508181036040830152612f8d818461280f565b9050949350505050565b6000612fa1612fb2565b9050612fad8282613277565b919050565b6000604051905090565b600067ffffffffffffffff821115612fd757612fd66133af565b5b612fe0826133de565b9050602081019050919050565b6000819050602082019050919050565b600081519050919050565b600081519050919050565b600081519050919050565b6000602082019050919050565b600082825260208201905092915050565b600082825260208201905092915050565b600082825260208201905092915050565b600082825260208201905092915050565b600081905092915050565b6000613085826131f9565b9150613090836131f9565b9250827fffffffffffffffffffffffffffffffffffffffffffffffffffffffffffffffff038211156130c5576130c4613322565b5b828201905092915050565b60006130db826131f9565b91506130e6836131f9565b9250826130f6576130f5613351565b5b828204905092915050565b600061310c826131f9565b9150613117836131f9565b9250817fffffffffffffffffffffffffffffffffffffffffffffffffffffffffffffffff04831182151516156131505761314f613322565b5b828202905092915050565b6000613166826131f9565b9150613171836131f9565b92508282101561318457613183613322565b5b828203905092915050565b600061319a826131d9565b9050919050565b60008115159050919050565b60007fffffffff0000000000000000000000000000000000000000000000000000000082169050919050565b600073ffffffffffffffffffffffffffffffffffffffff82169050919050565b6000819050919050565b82818337600083830152505050565b60005b83811015613230578082015181840152602081019050613215565b8381111561323f576000848401525b50505050565b6000600282049050600182168061325d57607f821691505b6020821081141561327157613270613380565b5b50919050565b613280826133de565b810181811067ffffffffffffffff8211171561329f5761329e6133af565b5b80604052505050565b60006132b3826131f9565b91507fffffffffffffffffffffffffffffffffffffffffffffffffffffffffffffffff8214156132e6576132e5613322565b5b600182019050919050565b60006132fc826131f9565b9150613307836131f9565b92508261331757613316613351565b5b828206905092915050565b7f4e487b7100000000000000000000000000000000000000000000000000000000600052601160045260246000fd5b7f4e487b7100000000000000000000000000000000000000000000000000000000600052601260045260246000fd5b7f4e487b7100000000000000000000000000000000000000000000000000000000600052602260045260246000fd5b7f4e487b7100000000000000000000000000000000000000000000000000000000600052604160045260246000fd5b6000601f19601f8301169050919050565b7f4552433732313a207472616e7366657220746f206e6f6e20455243373231526560008201527f63656976657220696d706c656d656e7465720000000000000000000000000000602082015250565b7f4552433732313a207472616e736665722066726f6d20696e636f72726563742060008201527f6f776e6572000000000000000000000000000000000000000000000000000000602082015250565b7f4552433732313a20746f6b656e20616c7265616479206d696e74656400000000600082015250565b7f4552433732313a207472616e7366657220746f20746865207a65726f2061646460008201527f7265737300000000000000000000000000000000000000000000000000000000602082015250565b7f4552433732313a20617070726f766520746f2063616c6c657200000000000000600082015250565b7f4552433732313a206f70657261746f7220717565727920666f72206e6f6e657860008201527f697374656e7420746f6b656e0000000000000000000000000000000000000000602082015250565b7f222c20226465736372697074696f6e223a2022546869732069732061204e465460008201527f20776f6e206279206d696e696e6720616c6c20626c6f636b732061742068747460208201527f70733a2f2f736861616e2e726f636b7320222c2022696d616765223a20220000604082015250565b7f202d204e465420233a2000000000000000000000000000000000000000000000600082015250565b7f4552433732313a20617070726f76652063616c6c6572206973206e6f74206f7760008201527f6e6572206e6f7220617070726f76656420666f7220616c6c0000000000000000602082015250565b7f4552433732313a2062616c616e636520717565727920666f7220746865207a6560008201527f726f206164647265737300000000000000000000000000000000000000000000602082015250565b7f4552433732313a206f776e657220717565727920666f72206e6f6e657869737460008201527f656e7420746f6b656e0000000000000000000000000000000000000000000000602082015250565b7f4552433732313a206d696e7420746f20746865207a65726f2061646472657373600082015250565b7f4552433732313a20617070726f76656420717565727920666f72206e6f6e657860008201527f697374656e7420746f6b656e0000000000000000000000000000000000000000602082015250565b7f222c207d00000000000000000000000000000000000000000000000000000000600082015250565b7f7b226e616d65223a202200000000000000000000000000000000000000000000600082015250565b7f4552433732313a20617070726f76616c20746f2063757272656e74206f776e6560008201527f7200000000000000000000000000000000000000000000000000000000000000602082015250565b7f646174613a6170706c69636174696f6e2f6a736f6e3b6261736536342c000000600082015250565b7f4552433732313a207472616e736665722063616c6c6572206973206e6f74206f60008201527f776e6572206e6f7220617070726f766564000000000000000000000000000000602082015250565b6138a28161318f565b81146138ad57600080fd5b50565b6138b9816131a1565b81146138c457600080fd5b50565b6138d0816131ad565b81146138db57600080fd5b50565b6138e7816131f9565b81146138f257600080fd5b5056fe4142434445464748494a4b4c4d4e4f505152535455565758595a6162636465666768696a6b6c6d6e6f707172737475767778797a303132333435363738392b2f4d696e746564204e465420772f20746f6b656e496420257320616e6420636861726163746572496e646578202573a2646970667358221220dc8ff37f8a30bab23516dcc54d38cadb46dd251083c5178c71304433ce78ff1b64736f6c63430008040033",
  "linkReferences": {},
  "deployedLinkReferences": {}
}